:100000000C942F080C9460080C9460080C94600801
:100010000C9460080C9460080C9460080C946008C0
:100020000C9460080C9460080C9460080C946008B0
:100030000C9460080C9460080C9460080C946008A0
:100040000C9460080C9460080C9460080C94600890
:100050000C9460080C9460080C9460080C94031CC9
:100060000C9460080C94CD1B0C94A31B0C9460089A
:100070000C9460080C9460080C9460080C94600860
:100080000C9460080C9460080C9460080C94600850
:100090000C9460080C9460080C9460080C944D1C3F
:1000A0000C9460080C9460080C9460080C94600830
:1000B0000C9460080C9460080C9460080C94600820
:1000C0000C9460080C9460080C9460080C94600810
:1000D0000C9460080C9460080C9460080C94600800
:1000E0000C94600805A84CCDB2D44EB93836A9029C
:1000F0000C50B9918688083CA6AAAA2ABE00000026
:10010000803F0C946C080C9443190C944C0B0C9489
:10011000210A0C9442110C94E5090C9462080C9489
:10012000770B0C941D0D0C946E0B0C94BE0D0C945F
:10013000430A0C94DB080C94450B0C94E3090C94D3
:1001400088100C94711D0C94410B0C94E90C0C94C8
:100150007B0A0C947C0B0C94E4090C94C60C0C9454
:10016000350A0C94640B0C94DA090C945C0B0C9417
:100170004C0D0C94370B0C94C80A0C943D0B0C944A
:10018000D60C0C94780B0C9496190C94F00C0C94DF
:10019000120A0C94600B0C9486090C946A0B0C9454
:1001A000330F0C94C70C0C9497190C943F100C94BB
:1001B00078100C948E090C94490B0C94720B0C94CF
:1001C000520B0C941B190C94560B000021002400B8
:1001D00027002A002D003000330001010000040137
:1001E00007010A0100002200250028002B002E0034
:1001F0003100340002010000050108010B0100007C
:1002000020002300260029002C002F0032000001CE
:100210000000030106010901050505050705080899
:100220000808020202020A0A080804040404010180
:100230000101010101010303030303030303040795
:1002400007070C0C0C0C0C0C0C0C0202020206062C
:100250000606060606060B0B0B0B0B0B0B0B01021F
:1002600010202008081020401020408002010201C8
:100270000804020101020408102040808040201080
:1002800008040201800402018040201008040201D9
:100290000804020101020408102040800102040841
:1002A0001020408000000A0B02090C0D0E08070305
:1002B0000401000000000000000000000000000039
:1002C000000000000000000000000000000000002E
:1002D00012111000000000000000000000000000EB
:1002E000000000000000000000005F0203020304A1
:1002F000010204070D00FE09FE0BFF01C803BA0549
:10030000742006EFFCF97F210AEFFC31D5EFA89DA0
:1003100004220BEFFC119322293AFF022312EFFC77
:1003200049B5281A96612A0DCB30D5A29C02241318
:10033000EFFCC1381C14A5A284EB9828156510E3C6
:100340000C2514EFFC4959B2284D43A8844394541A
:100350009425CB29002611EFFC69A29229A1B8248B
:100360004AC5A4688A4E270AEFFC31555473FE082B
:10037000280CEF3CADA2EAB32AEB0800290CEFBC35
:100380006455567D54451D032A10EFFC1933A534DE
:1003900068DA20258996B3012B0DEFFCB9A9DAB0F4
:1003A0000C9BAA33012C0AEFFCF937555443002D5E
:1003B0000AEFFCF9322CC3CE032E09EFFCF93755B6
:1003C00027012F0DEF7C8DAA511555A3AA8300306C
:1003D00012EFFC69E21059244552244592865027B9
:1003E00001310CEFFC89E2366489EA3B053210EFFB
:1003F000FC4943649154D19825C332EC043311EF86
:10040000FC49436491546D56244592869C023410F5
:10041000EFFC89E22DD11229928651D5290035139E
:10042000EFFC49433664F19045AA22299234E41442
:10043000003611EFFC699BA8AA83649114491A72D3
:100440000A00370FEFFC29C3322C592AAAA26AA747
:10045000013813EFFC494364912CD990258BA448B3
:10046000D29053003910EFFC4943649114491A5457
:10047000A3B693003A0AEFFC795375AA9D043B0B8F
:10048000EFFC795375AA510D013C09EFFCA9A26755
:10049000EF043D0DEFFCB90CCBB023C332EC1C3E96
:1004A0000AEFFC29B247EF44003F0EEFFCA121B256
:1004B00048AA68D5513B094012EFFC699B62691953
:1004C0009252920C8932C9434E4111EFFC69AA71D4
:1004D000C8122D91862553329D004213EFFC2983CB
:1004E000649114291A248BA448CAA05300430CEF2A
:1004F000FC699B62F5AC683B054414EFFC2943267C
:100500004516499114499114291A7212004512EFA7
:10051000FC29C3A225AA140D9214A95A32EC044650
:1005200011EFFC29C3A225AA140D9214A97622006A
:10053000470FEFFC699B62B52C922259B4212748E2
:1005400013EFFC29922229922229C32229922229DF
:10055000924E490BEFFC29C3A6FA6DD8094A0EEF5B
:10056000FC6943A87A522445DB49004B13EFFC2970
:100570009222454A366443A6488A649174024C0A22
:10058000EFFC29AABF25C34E4D14EFFC2961222997
:10059000C3322C15A5A2644AA6643A014E14EFFC9E
:1005A000295A322553922815A5B4444BA6643A0122
:1005B0004F14EFFC49436491144991144991144933
:1005C0001A720A00500FEFFC298364911449192410
:1005D000D59D085113EFFC49436491144991144986
:1005E000592CD310CB015212EFFC2983649114498A
:1005F00019242553248BA4135310EFFC4943645151
:100600000FE9AA48D2905300540DEFFC29C3922859
:1006100099EA7712005514EFFC2992222992222997
:10062000922229922249434E015611EFFC295AA2E7
:10063000458AA4644A38AA724E025714EFFC295A1C
:10064000A2255AA25494CA300D99922939055810FE
:10065000EFFC29922259B255DD12C922E904590D45
:10066000EFFC29922259B2D57712005A0FEFFC29DC
:10067000C39289AA6815B564D8095B0BEF7C06495B
:10068000F55F071D015C0DEF7C545935ABB26A561E
:1006900075005D0BEF7C06D5FF34E808005E0AEFBD
:1006A000FC69E210D9F9035F0AEFFCF92FC332ECC1
:1006B00000600AEFFC21559673FE046110EFFC39CF
:1006C0000D99A24A8322299234E8046210EFFC11AA
:1006D000D5455A4C8AA448CAE24E01630DEFFC3955
:1006E0000D91457592869C026411EFFC5127C5B2AD
:1006F000488AA4488A32293A016510EFFC390D91E5
:100700004552864595A421A700660EEFFCC14DC950
:10071000546DD854EF24006713EFFC390D8AA448B8
:100720008AA42893A22A923424006811EFFC11D5E0
:10073000455A4C8AA4488AA4483A01690CEFFC3116
:10074000550757DF869D006A0DEFFC4155C786D4DB
:100750004F8A36016B11EFFC11D5499122251B32CE
:1007600045B2483A016C0AEFFCA1D5BF0D3B016DC3
:1007700011EFFCB998866558948A52512A4A9D0017
:100780006E0FEFFCB99816932229922229924E6F90
:1007900011EFFC390D9145522445522469C82900B6
:1007A0007010EFFCB9981693222992B238A9220052
:1007B0007110EFFC39299645522445529449510D48
:1007C000720CEFFCB92CD220A9DE6900730FEFFC8C
:1007D000390D91451E624592869C02740DEFFC49CD
:1007E000AA3868AA176DA7007511EFFCB9488AA44A
:1007F000488AA4488A32293A01760FEFFCB9688901
:10080000162992128E724E027712EFFCB968895245
:10081000512A4A6598944CC92900780EEFFCB948D2
:100820008A94ADEA1629924E7911EFFCB9688916BF
:100830002999128E7296681B007A0DEFFCB90C4B49
:10084000343A4EC9B0137B0BEF3C37D56D9C55E75E
:100850001D7C08EFFC54FF77087D0CEF7C66D57992
:10086000DC54B71D037E0EEFFC21291992CA904477
:100870003A7F0100000004FFFF0000BF00030203F5
:1008800004030504060A00FE07FE07000142028871
:1008900007C4200500620721073943C7A0042207C7
:1008A0009B52476209230E3D424F294906A5322833
:1008B000A52401240C3D4257B6D4B624D9220025E4
:1008C0000C3D424FA474ABB4480900260D3D424F85
:1008D0009644495649A4480927061953C7002808D1
:1008E000BB425752AA152909BB424756AA94002A6F
:1008F0000A2D4647965406A52D2B0A2D4657180D4E
:100900005218012C079B3E8F52022D060D4EC72018
:100910002E089B3E4FB224002F083D4267AD63086E
:10092000300B3D425796D46C492D02310A3D425757
:10093000262561D320320C3D42CF92859194858348
:1009400000330C3D42C7206699AA250B00340C3DAC
:10095000425F2625A564D0C204350B3D42C7313124
:10096000855AB200360C3D4297948589494B160052
:10097000370B3D42C720666156CC00380C3D42CF54
:100980009269C99269C902390C3D42CF92498A12D3
:100990006691043A0ABB3E4FB2A4C992003B09BB20
:1009A0003E4FB2A44A093C08BC425FD4D8003D087F
:1009B0001D4AC7A00E023E08BC4247D8D4063F0AD3
:1009C0003D42CF9235E65004400C3D42CF92494B18
:1009D00062491700410C3D425796D4B461C8B40037
:1009E000420D3D42C71055A264AA448302430A3D0A
:1009F00042CF92896DC902440F3D42C71055A224CF
:100A00004AA2241A1400450B3D42C7311C92301CE7
:100A100004460A3D42C7311C92B008470B3D42CF05
:100A20009289A52D5900480A3D4247661B86CC167F
:100A30004908BB42C71275194A0A3D42D716B64447
:100A400091044B0D3D42472625252D892A59004CFE
:100A5000083D4247D8E3204D0B3D4247A62D4BA20F
:100A6000D9024E0C3D4247A64D4A226D5A004F0A0C
:100A70003D42CF92794B1600500C3D42C79064DA4C
:100A8000A0844500510A453ECF9279A9AC01520D90
:100A90003D42C79064DAA0942A5900530B3D42CFDF
:100AA00092A9AB962C0054093D42C720853D0155C3
:100AB000093D4247E65BB200560D3D4247664B4A50
:100AC0004994641100570A3D4247E69228C92D58BF
:100AD0000B3D4247A625B54A4D0B590A3D4247A654
:100AE00025B5B0095A0A3D42C720661D07015B08BB
:100AF000BB42C710751A5C083D424798760C5D08EA
:100B0000BB42C7D469085E081D525796D4025F06DF
:100B10000D3EC7206006125B4714610A2D42CF9A32
:100B20000C5A3204620B3D424758316993A200636C
:100B30000A2D42CF928959B200640A3D4267C5B47A
:100B4000498A12650A2D42CF920D43BA00660B3DC9
:100B5000429754C98628AC01670C3D3ACFA069C9B9
:100B6000106AC902680A3D4247583169B6006908EF
:100B7000BB424F28B50C6A0BCC3A5FACD524295147
:100B8000006B0B3D4247589392A992056C08BB42FB
:100B900087D4CB006D0B2D4287D2A2244AA2056ECA
:100BA000092D424762D26C016F092D42CF92D99232
:100BB00005700C3D3A4762D22645094300710A3D53
:100BC0003A8F699314252C72092D424762128B00CB
:100BD00073092D42CF921E1400740C3D424F980DA4
:100BE00051588A140075092D4247E6A42801760B56
:100BF0002D4247A625A5248B00770A2D424766493A
:100C0000942E00780A2D424796D42AB500790C3DDF
:100C10003A47665294504B16007A092D42C7A0B548
:100C20000D027B0ABC4297122662140A7C063943E5
:100C3000C7217D0BBC428718854A9848007E091D54
:100C4000524FA4245202A005006207A1073943476E
:100C50003208A20E3D3E573628511225D9104500C4
:100C6000A30C3D429754C9B630521400A40B2D4238
:100C700047964C49B46401A50D453E47A625B56885
:100C800090C21200A6063943C732A70B453ECF12C9
:100C90004E9DC66401A8068B5E4712A90D3D42CF4A
:100CA0009229C9A4245AB200AA0AB446CF10294AEC
:100CB0007108AB0C2E4257254AA22CCAA200AC07E1
:100CC000944AC79005AD068C4EC710AE0C3D42CF7E
:100CD000920DC93469C902AF060D5EC720B0079BEB
:100CE000524F1700B10B354257180D52180D02B272
:100CF00009AC4E8F12350D01B309AC4EC79888432D
:100D000002B406125B8F02B50A353E47669B142576
:100D100004B60F3D42CF3024439228511225511280
:100D2000B706094F4700B806123B8F02B908AB4E11
:100D30004F225506BA0AB4468F1249893A04BB0DB0
:100D40002E42479445599444491401BC0D4E3E4FE0
:100D5000A816A7504BA2210DBD0C4E3E4FA81697CA
:100D60003049C370BE0E4D3E879AA59194494932D1
:100D70008401BF0A3D42570E8559CB02C00C454243
:100D80004F9A2D99360C9916C10C45425F6DC9B426
:100D900061C8B400C20D45425796444BA60D43A608
:100DA00005C30D45424FA4484BA60D43A605C40CF0
:100DB00045424F1D58326D18322DC50D454257968C
:100DC000444BA60D43A605C60C3E42D790949A8686
:100DD000216A1AC70B4D3ACF92896DC95603C80CC8
:100DE00045424F368CE19084E120C90C45425F3288
:100DF0008CE19084E120CA0C454257348CE1908408
:100E0000E120CB0C45424F6518C32109C341CC0AF0
:100E1000C34247962C51CB00CD0AC34257922C5166
:100E2000CB00CE0AC3424F6548A29601CF0AC34207
:100E300047922D51CB00D00E3D42C71055A221291B
:100E400025D1A000D10C454257D26D521269D30270
:100E5000D20B45424F9A2D995BB200D30A45425FAF
:100E60006DC9DC9205D40C45425796444BE6962C4E
:100E700000D50B454257D2B4646EC902D60B454229
:100E80004F1D5832B76401D70A2D424796D42AB570
:100E900000D80C3D42CF125D92694A1600D90A452E
:100EA000424F1A65DE9205DA0A45425F29F3962C15
:100EB00000DB0B45425796C4995BB200DC0A454201
:100EC0004F39F3962C00DD0B45425F29D3925A58D7
:100ED00002DE0C3D42473824D9A0844500DF0D3D99
:100EE00042CF924949A992290A00E00C45424F9A03
:100EF000236B3268C910E10C45425F1D5993414B89
:100F00008600E20D45425796E4C09A0C5A3204E33B
:100F10000D454257D20EACC9A0254300E40C3D421A
:100F20004F1D5893414B8600E50D4542579664D9B5
:100F30009A0C5A3204E60C2E42CF1026C930658333
:100F400000E70B3D3ACF928959B2D500E80C4542F3
:100F50004F9A234B360CE902E90C45425F1D59B20A
:100F600061481700EA0D45425796E4C0920D43BA16
:100F700000EB0C3D424F1D58B261481700EC09C30D
:100F80004247164A2D03ED08C3424F556A19EE0831
:100F9000C3424F9BD432EF09BB424792492D03F025
:100FA0000B3D42872A2D992D5900F10B454257D20E
:100FB0009C98345B00F20C45424F9A234B664B16CB
:100FC00000F30B45425F1D59325BB200F40C454201
:100FD0005796E4C092D99205F50C454257D20E2C93
:100FE000992D5900F60B3D424F1D58325BB200F768
:100FF0000A2D46570E0C3A1001F80B2D42CF202D2A
:10100000C9342800F90B45424F9A039993A204FA78
:101010000A45425F1DC89C1425FB0B45425796C4E8
:101020009993A204FC0A3D424F3973529400FD0D7E
:101030004D3A5F2933294AA8250B00FE0C453A4753
:101040003824996D50C210FF0D4D3A4F3933294A5B
:10105000A8250B0000000004FFFF0000711D1124F3
:101060001FBECFEFD1E2DEBFCDBF00E00CBF13E06B
:10107000A0E0B2E0E2EDF1E500E00BBF02C00790B6
:101080000D92A83CB107D9F720E1A8ECB3E001C06C
:101090001D92A136B207E1F718E0CFE2D8E000E0F8
:1010A00006C021970109802FFE010E94DA25CE3269
:1010B000D10780E00807A9F70E94781E0C94E72862
:1010C0000C940000662329F06A3019F0862F90E016
:1010D00008958FEF9FEF0895AF92BF92CF92DF9266
:1010E000EF92FF920F93CF93DF93EC01DA01790136
:1010F000942F9770E1E0F0E09F01092E01C0220FCC
:101100000A94EAF7522F6E018AE8C80ED11CF60144
:10111000808140E0823018F4422F813049F15D0136
:10112000F8EFAF22E8ADF9AD28813981D9015096A9
:101130008C918A9D90018B9D300D1124620F731F3D
:10114000DF01A60FB71F01111AC0EA0EFB1E8C911A
:10115000842B85278D93AE15BF05C9F7DF91CF91FD
:101160000F91FF90EF90DF90CF90BF90AF900895D8
:1011700050E0D5CF440F550FE114F10479F33C91C1
:10118000342B35273C939F5F9770E1E0EE1AF1080E
:101190009111F0CF2CAD3DADA20FB31FF6018081B0
:1011A000823028F4813009F051E041E0E5CF51E090
:1011B000E3CF80E0089590E080E00895CF93DF933F
:1011C000CBECDFE08FAFEAADFBAD0190F081E02D1D
:1011D0008FEC9FE01995EAADFBAD0280F381E02D25
:1011E0008FEC9FE0DF91CF9119948093591008956F
:1011F000EF92FF920F931F93CF93DF9393E1899F19
:10120000E0011124C450D94F6A8984E0689FF0013D
:101210001124E052F94FE280F38000811181E889C6
:10122000F98980EE96E0199594E0899FF0011124E8
:10123000E052F94F42815381208131818A8BC9016B
:10124000801B910B9A012E193F093B832A835B87F0
:101250004A87F986E8861D870C8797FD19C041E00B
:1012600050E0598348831F861E86FC01B9010E9405
:10127000C6257D836C83CF01B9010E94C6259F835B
:101280008E83DF91CF911F910F91FF90EF90089582
:101290004FEF5FEF59834883EE27FF27E81BF90BD9
:1012A00041E050E0421B530B5F874E87DFCFEF9248
:1012B000FF920F931F93CF93DF938C0183E1689F7D
:1012C000F0011124E052F94F86A57F019CE2E90E5E
:1012D000F11CEF01AE96D701ED91FC91682F80EEE5
:1012E00096E01995B4E08B9FF0011124E052F94F7C
:1012F000228133812017310711F48883ECCFDF91ED
:10130000CF911F910F91FF90EF9008956F5FFC01B7
:10131000808D681708F060E0862F08956150FC0109
:10132000808D681710F06FEF680F862F08958091F9
:10133000291090912A10892BA1F180914910809356
:10134000551040914A104093561090915410992393
:1013500041F1913069F490914B10891714F49093F6
:10136000551080914C108417E4F480935610089522
:101370003091461020914810082E000C990B622FD6
:10138000022E000C770B630F711D37FD7A958617BF
:1013900097071CF4320F30935510241714F4209340
:1013A000561008959B01DC011896ED91FC9141E0E7
:1013B00067E119948A579F4FFC018081082E000C29
:1013C000990B0196089508950895AF92BF92CF9218
:1013D000DF92EF92FF920F931F93CF93DF936C01F5
:1013E0007B018B01040F151FEB015E01AE18BF08D6
:1013F000C017D10759F06991D601ED91FC91019088
:10140000F081E02DC6011995892B79F7C501DF918F
:10141000CF911F910F91FF90EF90DF90CF90BF90F1
:10142000AF900895FC01538D448D252F30E0842F1B
:1014300090E0821B930B541710F0CF9608950197FC
:101440000895FC01918D828D981761F0A28DAE0FE9
:10145000BF2FB11D5D968C91928D9F5F9F73928F70
:1014600090E008958FEF9FEF0895FC01918D828D9C
:10147000981731F0828DE80FF11D858D90E0089569
:101480008FEF9FEF0895FC01918D228D892F90E0C1
:10149000805C9F4F821B91098F739927089582E288
:1014A00097E00E94430A21E0892B09F420E0822F73
:1014B0000895FC01A48DA80FB92FB11DA35ABF4FE9
:1014C0002C91848D90E001968F739927848FA68943
:1014D000B7892C93A089B1898C91837080648C9397
:1014E000938D848D981306C00288F389E02D808146
:1014F0008F7D80830895EF92FF920F931F93CF9378
:10150000DF93EC0181E0888F9B8D8C8D98131AC03E
:10151000E889F989808185FF15C09FB7F894EE8925
:10152000FF896083E889F989808183708064808382
:101530009FBF81E090E0DF91CF911F910F91FF90CD
:10154000EF900895F62E0B8D10E00F5F1F4F0F7375
:101550001127E02E8C8D8E110CC00FB607FCFACF30
:10156000E889F989808185FFF5CFCE010E94590A6B
:10157000F1CFEB8DEC0FFD2FF11DE35AFF4FF08201
:101580009FB7F8940B8FEA89FB8980818062CFCF67
:10159000CF93DF93EC01888D8823B9F0AA89BB89AA
:1015A000E889F9898C9185FD03C0808186FD0DC095
:1015B0000FB607FCF7CF8C9185FFF2CF808185FFB6
:1015C000EDCFCE010E94590AE9CFDF91CF91089566
:1015D00080E090E0892B29F00E944F0A81110E943F
:1015E000000080E090E0892B49F080E090E0892BBA
:1015F00029F00E94000081110E94000080E090E02C
:10160000892B49F080E090E0892B29F00E940000AE
:1016100081110E94000080E090E0892B49F080E079
:1016200090E0892B29F00E94000081110C940000A9
:1016300008958150823108F05AC0E82FF0E08827E1
:10164000EB5DF44F8F4F0C94DA25450B490B370BAC
:101650003D0B410B770B4C0B520B560B5C0B600B8D
:10166000640B6A0B6E0B770B720B780B7C0B809103
:1016700080008F77809380000895809180008F7D17
:10168000F9CF80918000877FF5CF84B58F7784BDB7
:10169000089584B58F7DFBCF8091B0008F778093C4
:1016A000B00008958091B0008F7DF9CF80919000B7
:1016B0008F77809390000895809190008F7DF9CF6F
:1016C00080919000877FF5CF8091A0008F778093E5
:1016D000A00008958091A0008F7DF9CF8091A00097
:1016E000877FF5CF809120018F7780932001089527
:1016F000809120018F7DF9CF80912001877FF5CFE8
:10170000CF93DF93282F30E0F901EC55FD4F849102
:10171000F901E25AFD4FD491F901E85EFD4FC49101
:10172000CC23A1F081110E94190BEC2FF0E0EE0FF9
:10173000FF1FE250FE4FA591B491EC91ED2381E0A3
:1017400090E009F480E0DF91CF91089580E090E08F
:10175000FACF1F93CF93DF93282F30E0F901EC5598
:10176000FD4F8491F901E25AFD4FD491F901E85EF1
:10177000FD4FC491CC23A9F0162F81110E94190BA3
:10178000EC2FF0E0EE0FFF1FEC51FE4FA591B4914E
:101790008FB7F894EC91111108C0D095DE23DC933B
:1017A0008FBFDF91CF911F910895DE2BF8CFCF939C
:1017B000DF9390E0FC01E25AFD4F2491885E9D4F3B
:1017C000FC0184918823D1F090E0880F991FFC01DF
:1017D000E653FE4FA591B491FC01EC51FE4FC5912B
:1017E000D491623071F49FB7F8943C91822F809528
:1017F00083238C93E8812E2B28839FBFDF91CF9189
:1018000008958FB7F894EC912E2B2C938FBFF6CFC1
:101810003FB7F89480915D0490915E04A0915F04BD
:10182000B091600426B5A89B05C02F3F19F0019622
:10183000A11DB11D3FBFBA2FA92F982F8827BC012A
:10184000CD01620F711D811D911D42E0660F771F52
:10185000881F991F4A95D1F708958F929F92AF9252
:10186000BF92CF92DF92EF92FF926B017C010E94B8
:10187000080C4B015C01C114D104E104F104B9F07E
:101880000E94080C681979098A099B09683E73400F
:101890008105910580F321E0C21AD108E108F10821
:1018A00088EE880E83E0981EA11CB11CE4CFFF9047
:1018B000EF90DF90CF90BF90AF909F908F90089562
:1018C00020913504260F3327331F21323105ECF4E4
:1018D0002091B606FC0190E080E0243069F082E0BF
:1018E0000895A09135042191AC014B5E5B4FA40F8C
:1018F000B52FB11D2C930196861798F3809135046E
:10190000680F6093350480E0089581E00895109297
:10191000B60681E08093B5061092900661E084E1FE
:101920000E94A90B61E085E10E94A90BE9EBF0E0C0
:1019300080818E7F808380818D7F808388E4809307
:10194000B80085E48093BC000895CF93DF9391E0C5
:10195000909314048823B9F0C091B800D091BA00D4
:101960008091BC008A7B8093BC0060E084E10E948F
:10197000A90B60E085E10E94A90B0E94870CD0931F
:10198000BA00C093B800DF91CF9108950895E09117
:101990006F0680916E06E81730F4F0E0E059F94FD9
:1019A000808190E008958FEF9FEF089590916F06EA
:1019B00080916E062FEF3FEF981748F4E92FF0E083
:1019C000E059F94F208130E09F5F90936F06C90185
:1019D000089580916E0690916F06891B990B08956A
:1019E000CF92DF92EF92FF920F931F93CF93DF93EB
:1019F0007C01CB018A012091DF06222389F0EB01D3
:101A00006B01C40ED51ECC15DD0569F06991D701B7
:101A1000ED91FC910190F081E02DC7011995F3CF74
:101A2000642F0E94600CC801DF91CF911F910F912C
:101A3000FF90EF90DF90CF900895CF93DF931F92A8
:101A4000CDB7DEB769832091DF062223F9F020911C
:101A5000DC06203258F021E030E0FC0133832283A1
:101A600090E080E00F90DF91CF9108958091DD06A6
:101A7000E82FF0E0E454F94F998190838F5F8093D1
:101A8000DD068093DC0681E090E0ECCF61E0CE01E2
:101A900001960E94600CF7CF0F931F93CF93DF93B3
:101AA0008C01C62F642FCC32E8F4CA3208F041C052
:101AB000C83271F1C93209F442C080E0C034D0F1BB
:101AC000CF73F801EC0FF11D868D8F3F91F1C0317E
:101AD000E0F00E94800B21E0892B09F420E0F8015E
:101AE000218F27C0CD3289F140F384EB8C0F8230F7
:101AF00020F7CF73C00FD12FD11D8E8D411133C070
:101B000061E00E94D70B60E08E8D0E94A90B11C08E
:101B1000025E1F4FD0E0F80181918F018F3F31F0BD
:101B200061E0D03108F062E00E94D70BDF5FD63170
:101B300091F781E0DF91CF911F910F91089570E0AF
:101B400090E080E00E942D0CF4CF85E090E04330DF
:101B500010F082E090E0880F991F880F991F059779
:101B60000197F1F7E6CF62E00E94D70BE2CFDC01EC
:101B70001A96ED91FC9130E020E019941F93CF93D9
:101B8000DF93EC01A881B981683109F49BC038F476
:101B9000643109F489C0673149F080E00EC06931D1
:101BA00009F4D4C06032C9F76AE488C01C968C91ED
:101BB00080FD3FC0411105C081E0DF91CF911F91B1
:101BC0000895F90181919F014150DFB7F894A091E8
:101BD0001204B0911304C0911104E0910F04F0912C
:101BE000100470910E0460910D0481110EC08C914F
:101BF0008C238C9388E09081972B908390819623FF
:101C000090838150C1F7DFBFD5CF10910C0498E0CD
:101C10005C9187FF0CC0512B5C935081572B5083F4
:101C2000880F508156235083915091F7ECCF5C235D
:101C3000F3CF442309F4C0CFF90181919F014150B2
:101C4000DFB7F894A0911204B0911304C09111046D
:101C5000E0910F04F091100460910E0470910D0456
:101C600081110EC08C918C238C9388E090819723F6
:101C700090839081962B90838150C1F7DFBFD9CF9D
:101C800010910C0498E05C9187FF0CC0512B5C9381
:101C9000508157235083880F5081562B5083915089
:101CA00091F7ECCF5C23F3CF11964C9169E40E943D
:101CB000B70DE881F9814485417060E4CE010E944E
:101CC000B70D7ACF4C9169E40E94B70DA881B98114
:101CD000EA85FB8530E020E012964C916CE2CE0163
:101CE00019958E8D90E0FC01E85EFD4FE491F0E0E7
:101CF000EE0FFF1FEC51FE4F2591349130931004ED
:101D000020930F04FC01E25AFD4FE491E0930E048E
:101D1000E095E0930D048F8D90E0FC01E85EFD4FAF
:101D2000E491F0E0EE0FFF1FEC51FE4F259134914E
:101D30003093130420931204FC01E25AFD4FE49106
:101D4000E0930C04E095E093110436CFEA85FB851F
:101D500030E020E013964C916CE21995E881F9810E
:101D6000418169E4ABCFDC011496ED91FC9130E048
:101D700020E040E060E11994DC011696ED91FC91C1
:101D800030E020E040E069E11994DC011696ED9125
:101D9000FC9130E020E040E068E119949A01DC0118
:101DA0001696ED91FC91462F67E11994EF92FF9200
:101DB0000F931F93CF93DF931F92CDB7DEB77C01B4
:101DC0008B01D8016C91673129F150F46531A0F491
:101DD0000F90DF91CF911F910F91FF90EF90089599
:101DE0006A3118F16E3FA1F7F8014181498369E238
:101DF000C7010E94B70D0BC0F80141814983D7018B
:101E00001696ED91FC9130E020E0C70119950E5F28
:101E10001F4FD7CFF80181818983AE014F5F5F4F9C
:101E200061E0C7010E94CE0EF2CF0F5F1F4FD701B6
:101E30001696ED91FC9130E020E040E0C701199545
:101E4000C0CF462FDC011696ED91FC9130E020E0EA
:101E500066E11994462FDC011696ED91FC9130E075
:101E600020E065E119947F928F929F92AF92BF928A
:101E7000CF92DF92EF92FF920F931F93CF93DF9356
:101E8000EC01B42E79016A30D9F06D3009F451C0FB
:101E9000693009F060C08BEF92E0998388838CE110
:101EA0008C8B81E0DF91CF911F910F91FF90EF908C
:101EB000DF90CF90BF90AF909F908F907F900895CC
:101EC000EA85FB8530E020E040E068E21995EE818C
:101ED000FF8130E020E040E064E1CE01199541E06F
:101EE0006BE4CE010E94B70DE881F981448169E27B
:101EF000CE010E94B70D40E06BE4CE010E94B70D09
:101F0000E881F981448169E2CE010E94B70D41E088
:101F10006BE4CE010E94B70DE881F981458169E249
:101F2000CE010E94B70D68EA72E0CE010E94D60E83
:101F3000B8CF411108C06CE872E00E94D60EE8816B
:101F4000F9818289ADCF6FE972E00E94D60EE881F7
:101F5000F9818389A5CF6E3069F06F30C9F080E0D8
:101F60006B3009F09FCF6AE972E04423F1F265E932
:101F700072E0DBCF0E94C50E61ECCE010E942A0FF9
:101F80006B2DCE010E94210FCE010E94BC0E89CF85
:101F90000E94C50EF7011381110F8C89180F04815F
:101FA000000F000F000F65E7CE010E942A0F602F7F
:101FB000CE010E94210F67E0600FCE010E94210F29
:101FC000F7010281C080D180702EA12E65E1CE0183
:101FD0000E942A0F6A2DCE010E94210F61E06A0D36
:101FE000CE010E94210F6CE5CE010E942A0F8CEEDB
:101FF00093E04601F8E08F0E911CF601DC01608150
:10200000518132969C01205E3F4F40EF60FF40E0DF
:1020100050FD4F604C931496669556952A173B07D2
:10202000A1F701968E169F0649F74CEE53E060E249
:10203000CE010E94CE0E6401A394A3947A947110F1
:10204000C5CF000F100FBA94B110BACF9DCFCF9368
:10205000DF931F92CDB7DEB76983BE016F5F7F4FFD
:102060000E94D2090F90DF91CF910895462FDC0195
:102070001896ED91FC9130E020E060E21994EF9227
:10208000FF920F931F93CF93DF93EC01162F042F32
:1020900079016631C9F038F4643149F060E01531F6
:1020A000A1F080E01AC06731F9F06A31D0F7E88515
:1020B000F9859701402F612FCE01DF91CF911F91BC
:1020C0000F91FF90EF90199461E0CE010E943610BD
:1020D000602FCE010E94271081E0DF91CF911F91E8
:1020E0000F91FF90EF90089561E00E943610DFCFCE
:1020F0000F93FC01E05CFF4F0190F081E02D4E1B3F
:102100005F0BDC01D496ED91FC9119950F91089528
:10211000CF93DF93FC01A081B18182AD90E09C015F
:1021200043E0220F331F4A95E1F737AF26AF5096B1
:102130002C91509748E0249F9001112435AF24AF93
:1021400023AD30E0B90153E0660F771F5A95E1F7F0
:10215000EF01C05CDF4F7983688351964C915197B2
:10216000E901C80FD91F50E04C175D0718F4CA01E8
:10217000821B930BEF01CE5BDF4F7983688322963E
:1021800023E0880F991F2A95E1F7860F971F9983FF
:102190008883229654968D919C9155979983888334
:1021A000E85BFF4F56968D919C9191838083DF91E0
:1021B000CF910895FC01208531858285938528176C
:1021C00039072CF54485558584819581480F591F21
:1021D000558744878685978566817781860F971F07
:1021E000978786871816190664F460817181460FF7
:1021F000571F5587448742815381841B950B9787CE
:1022000086872F5F3F4F3187208781E0089580E0E8
:1022100008950F931F93FC01E25BFF4F0190F08143
:10222000E02DDC01A05BBF4F0D90BC91A02D4A17A3
:102230005B0740F4E017F10748F00417150730F08A
:1022400080E019C0E017F107C0F3FACFFC01E65BAC
:10225000FF4F40815181845B9F4FFC0180819181C0
:102260006817790758F481E04217530720F081E09E
:102270002617370728F71F910F9108954217530724
:10228000B0F3DECF2F923F924F925F926F927F9288
:102290008F929F92AF92BF92CF92DF92EF92FF9276
:1022A0000F931F93CF93DF9300D000D000D01F92E5
:1022B000CDB7DEB79A878987865B9F4F9A838983DC
:1022C000FC0111821082E985FA85EA5BFF4F4080AC
:1022D000518029853A85245B3F4F3C832B83F9014C
:1022E00051824082E985FA85EE5BFF4F2080318084
:1022F00029853A85225B3F4F3E832D83F901318248
:102300002082E985FA85EC5BFF4F6080718029852A
:102310003A85205B3F4F38872F83F90171826082B5
:10232000E985FA85E85AFF4FE080F180E985FA8572
:10233000EC5AFF4FA080B180E985FA85EA5AFF4F39
:10234000C080D180E985FA85EE5AFF4F8080918068
:1023500087019501A601B40189859A850E9409111A
:1023600029853A852C573F4F3A87298781111BC011
:10237000F90110822A960FB6F894DEBF0FBECDBFCA
:10238000DF91CF911F910F91FF90EF90DF90CF9051
:10239000BF90AF909F908F907F906F905F904F9085
:1023A0003F902F90089581E0E985FA85808381141C
:1023B000910421F0E981FA8191828082A414B5040C
:1023C00020F4EB81FC81B182A0822C143D0420F426
:1023D000ED81FE81D182C082E614F70458F6EF81C8
:1023E000F885F182E082C6CF0F93CF93DF93E02F81
:1023F000DC01AC57BF4FFC91FF2309F460C02115ED
:10240000310509F45CC02230310538F0023009F0A2
:102410004AC06F5F7F4F621B730B0E2F0170E0FD90
:1024200052C0FC01E25BFF4F0190F081E02D4E179E
:102430005F0708F444C0FC01E05BFF4F0190F081AE
:10244000E02D4E175F07D8F5FC01E45BFF4F0190CC
:10245000F081E02DDC01A65BBF4F0D90BC91A02D5B
:10246000260F371F2617370738F56E177F0718F521
:102470009F0121503109A217B30708F56A177B079E
:1024800008F4BD012E173F0708F4F901E61BF70B0E
:10249000EC01AEA9BFA914960D90BC91A02D9F018F
:1024A000FD0119950CC0033009F0B7CF4F5F5F4FA6
:1024B000421B530BB2CFBD016E177F07E0F2DF91D5
:1024C000CF910F910895FC01E65BFF4F0190F081E1
:1024D000E02D6E177F0798F3FC01E45BFF4F01903E
:1024E000F081E02D6E177F0750F7FC01E05BFF4F96
:1024F0000190F081E02DDC01A25BBF4F0D90BC91FB
:10250000A02D240F351F24173507A8F44E175F0799
:1025100088F49F0121503109A217B30780F64A17AA
:102520005B0708F4AD012E173F0708F4F901E41B1F
:10253000F50BAECFAD014E175F0708F6EDCF2F922A
:102540003F924F925F926F927F928F929F92AF9243
:10255000BF92CF92DF92EF92FF920F93CF93DF93D0
:1025600000D01F92CDB7DEB74C015B015C834B837B
:102570006B018FEFC81AD80A85E3682E712C2301EE
:10258000461A570A1A01280C391C01E09601A201CB
:10259000B1018FEC9FE00E94F41174019FEFE91AE2
:1025A000F90A681879088B819C818A0D9B1D9A8392
:1025B00089839701A301BC018FEC9FE00E94F41175
:1025C0008B819C81881999094C019601A201BC015B
:1025D0008FEC9FE00E94F4118B819C818A199B09EA
:1025E0009C838B839701A301BC018FEC9FE00E9429
:1025F000F411960145E350E0B1018FEC9FE00E9499
:10260000F411970145E350E069817A818FEC9FE0F6
:102610000E94F411960145E350E0B4018FEC9FE075
:102620000E94F411970145E350E06B817C818FECAF
:102630009FE00E94F4110F900F900F900F90DF9188
:10264000CF910F91FF90EF90DF90CF90BF90AF9020
:102650009F908F907F906F905F904F903F902F90C2
:1026600008958F929F92AF92BF92CF92DF92EF9296
:10267000FF920F931F93CF93DF936C019C01295F0F
:102680003F4FBC01665071090CE310E04FE250E08F
:102690008FEC9FE00E940911882321F1A60166E0DA
:1026A00070E090E080E00E949F12AA24A394B12CD5
:1026B000F12CE12C06E010E094EF892E99249A94F5
:1026C000CBEFDFEF8FEFE81AF80A82E0A80EB11C1B
:1026D000CA0DDB1DA601B801C7010E949F12E016BA
:1026E000F10668F0DF91CF911F910F91FF90EF906D
:1026F000DF90CF90BF90AF909F908F900895D7FDBF
:10270000E1CF0150110982E0880E911CC80DD91D3E
:10271000D9CF0F93CF93DF93E9019093E106809394
:10272000E00685E390E09093E3068093E2067093E1
:10273000E5066093E4069093E7068093E6065093DF
:10274000E9064093E8063093EB062093EA0683E01F
:102750008093F80686E899E09093200780931F07FE
:102760008EE899E090930D0780930C07263331058E
:1027700044F422E0C533D10509F420E085E390E07C
:1027800004C0C90120E0C5E3D0E020930E078C1BF4
:102790009D0B9093FB068093FA06892B09F48DC05C
:1027A0002093210761E0CE010E94570960E0CE012D
:1027B0000E94570981E08093F906A0910E0784E0FA
:1027C000A89FD0011124A052B94FE091210784E0C5
:1027D000E89FF0011124E052F94F2D913C91808146
:1027E00091812817390709F45CC01092F906C0914D
:1027F000FA06D091FB0680E00E94F80881E00E9472
:10280000F8088091F906882341F08CEF96E00E9449
:10281000DA108FE097E00E94DA104091170750918C
:10282000180757FD2CC08091171090911810481769
:10283000590728F5209108073091090780911B0757
:1028400090911C0728173907E4F597FD18C0E0910F
:102850001510F09116102E173F0788F4B90137FFB5
:1028600002C070E060E08E179F0708F0CF019C0166
:10287000261B370B00E08FEC9FE00E94F4118CEFD9
:1028800096E00E94DA10882391F18FE097E00E9491
:10289000DA10882381F121971C161D060CF4BDCF98
:1028A0000CC08091FA069091FB0601979093FB066D
:1028B0008093FA06892B09F09ACFDF91CF910F917F
:1028C000089537FDDCCF60911510709116108617B2
:1028D0009707A8F697FF02C030E020E026173707D9
:1028E00008F09B01281B390B00E0BC01C4CF80E03D
:1028F0000E94F808C4CF81E00E94F808C6CF0F9369
:1029000020911D1030911E1062177307F0F0209176
:102910001F103091201062177307B8F4209119101E
:1029200030911A108217930780F020911B1030917C
:102930001C108217930748F4AB01BC0100E021E0B2
:1029400030E08FEC9FE00E94F4110F9108952F92D8
:102950003F924F925F926F927F928F929F92AF922F
:10296000BF92CF92DF92EF92FF920F931F93CF937C
:10297000DF937C018B016A01E9014901861A970AFC
:102980003A01680E791EB401C3010E947F145E01F2
:10299000AE18BF0828014C0C5D1CB501C2010E9495
:1029A0007F1416012E183F08B401C1010E947F1444
:1029B000C01AD10AB501C6010E947F140C0F1D1F59
:1029C000B801C3010E947F14CE0DDF1DBE01C201FC
:1029D0000E947F14B801C1010E947F14BE01C6018C
:1029E000DF91CF911F910F91FF90EF90DF90CF90EB
:1029F000BF90AF909F908F907F906F905F904F901F
:102A00003F902F900C947F146F927F928F929F92A1
:102A1000AF92BF92CF92DF92EF92FF920F931F93EC
:102A2000CF93DF933C015B01EA018A010F5F1F4FE7
:102A3000060F171F9C012F5F3F4F240F351FAB015F
:102A40004C1B5D0BBC016C1B7D0B8FEC9FE00E944F
:102A50000911882379F101E010E00C1B1D0BEE2415
:102A6000FF24EC1AFD0AEE0CFF1C9501A301BE0128
:102A700090E080E00E94A71488248394912CD12CAC
:102A8000C12C17FD06C0219782E0E80EF11C0E0D47
:102A90001F1D8FEFC81AD80A82E0880E911C080DFE
:102AA000191D9501A301BE01C6010E94A714CC16F1
:102AB000DD0638F3DF91CF911F910F91FF90EF90DA
:102AC000DF90CF90BF90AF909F908F907F906F904E
:102AD0000895213069F038F0223079F0840F911D8B
:102AE00047FD9A950895860F911D67FD9A95089563
:102AF000841B910947FD93950895861B910967FDF5
:102B000093950895213069F038F0223079F0861BD2
:102B1000910967FD93950895840F911D47FD9A953E
:102B20000895860F911D67FD9A950895841B91095C
:102B300047FD939508953F924F925F926F927F92D7
:102B40008F929F92AF92BF92CF92DF92EF92FF92BD
:102B50000F931F93CF93DF937C01162F442EEC012C
:102B6000C25ADF4F5E806F806C018AE8C80ED11CAC
:102B700078847518312E711608F4372C8C809D805E
:102B80000E85202F462D652D8A819B810E94691517
:102B90005C01202F462D652DC4010E948215AC01D9
:102BA000442079F08C85F6018083232D30E0B50137
:102BB000C7010E94F411171548F017196394512C9E
:102BC000D7CF8B858111F7CF8D85EDCF150D1E8366
:102BD0006F82DF91CF911F910F91FF90EF90DF9067
:102BE000CF90BF90AF909F908F907F906F905F90AD
:102BF0004F903F900895DC011A964C911A97ED91F1
:102C0000FC911197249130E0042E02C03595279550
:102C10000A94E2F7842F860F883068F03196119677
:102C2000FC93EE93E49198E0941B01C0EE0F9A950B
:102C3000EAF72E2B88501A968C938FEF9FEF01C0E6
:102C4000880F6A95EAF7809582230895FC01E60FC4
:102C5000F11D849190E0982F88273196E4918E0F92
:102C6000911D0895CF93DF93EC01FC018491809333
:102C70003C103196E491E0933D10FE013296E491D0
:102C8000E0933E10FE013396E491E0933F10FE0185
:102C90003496E491E0934010FE013596E491E09380
:102CA0004110FE013696E491E0934210FE01379602
:102CB000E491E0934310FE013896E491E0934410D0
:102CC000FE013996E491E0934510FE013A96E491B5
:102CD000E0934610FE013B96E491E0934710FE011D
:102CE0003C96E491E0934810FE013D96E491E09318
:102CF0004910FE013E96E491E0934A10FE013F9692
:102D0000E491E0934B10FE017096E491E0934C1037
:102D100061E1CE010E94261690934E1080934D10D3
:102D200063E1CE010E9426169093501080934F10BD
:102D300065E1CE010E9426169093521080935110A7
:102D4000DF91CF9108954F925F926F927F928F9211
:102D50009F92AF92BF92CF92DF92EF92FF920F932A
:102D60001F93CF93DF93EC016B018A017901FC0182
:102D7000E459FF4F8081813009F44BC008F43EC014
:102D8000823009F451C0833009F459C0FE01E05A81
:102D9000FF4FD182C08232961183008338978081A1
:102DA000918147962FEFE216F10411F008F0F2C07E
:102DB000E1E6EE16F10408F44DC0FE01E058FF4FC5
:102DC00020813181820F931F9C012F5F3F4FF901BA
:102DD0004491411148C090E080E0DF91CF911F9174
:102DE0000F91FF90EF90DF90CF90BF90AF909F90AA
:102DF0008F907F906F905F904F900895FE01E45AFE
:102E0000FF4F0190F081E02DCE011995080F191F99
:102E1000BDCFFE01E45AFF4F0190F081E02DCE01BD
:102E20001995C81AD90AB2CFFE01E45AFF4F019092
:102E3000F081E02DCE011995081B190BA7CFFE01DB
:102E4000E45AFF4F0190F081E02DCE011995C80E94
:102E5000D91E9CCFF1E4EF16F10408F4B5CFFE01C2
:102E6000E258FF4FADCFFC0144914E151F0409F00D
:102E70008CC00296009709F4AECF7E01FEE5EF0EFE
:102E8000F11CF70191838083128673966081C701DC
:102E90000E94FB15F701808774966081C7010E942C
:102EA000FB15982EF70181875E01FAE8AF0EB11C81
:102EB000F5019081F701948781E0911180E0F7019D
:102EC0008587FE01ED58FF4FC0806C2DC7010E9421
:102ED000FB15582EFE01EC58FF4FD0806D2DC70119
:102EE0000E94FB15482EFE01EB58FF4F1081612F09
:102EF000C7010E94FB159FEF910F01E010E09801C0
:102F000001C0220F9A95EAF7882E821AF701608491
:102F100016140CF0ADC0CA94C80101C0880FCA9441
:102F2000EAF7581A7684490CDA94A80101C0440FD4
:102F3000DA94EAF7F42FF4194F2E272D4F2F652D31
:102F4000F701828193810E9469156C01F7019383D7
:102F50008283272D442D652D848195810E948215C1
:102F6000F70195838483F1E07F1609F485C07F160D
:102F700008F43FC022E0721609F48DC0E3E07E162B
:102F800009F49DC0BC0196013EC0F9012491820F55
:102F9000911D1ACFFE01EE57FF4F00811181080FDE
:102FA000191F680160E0C6010E942616080F191F4C
:102FB00062E0C6010E942616F4E0CF0ED11C8E15E9
:102FC0009F0580F3F801849190E0982F882731962F
:102FD000E4918E2B009709F4FECEE816F90619F459
:102FE000C801039647CFF8013296E4910E0F111DE8
:102FF000E9CF9601260D311D67FC3A95BC01690D9C
:10300000711D97FC7A958B01AC01B601CE010E942F
:103010000911882369F1F701168217828E0101597F
:103020001F4F6E01F0E7CF0ED11CF8016081C70180
:103030000E94FB15682EF6016081C7010E94FB15F6
:10304000782E40E0662DCE010E949B1541E0672D51
:10305000CE010E949B1561E0C7010E94FB15811102
:10306000F0CFF7018781891504F38485F50180830A
:10307000882D880C990BB1CE0919110997FC13956D
:1030800096012F5F3F4FBC01660D711D67FC7A955D
:10309000C00ED11EB8CFA8014619510967FC53953F
:1030A00096012F5F3F4F0919110997FC1395BC0139
:1030B0006F5F7F4F800F911FC40ED51EA4CF960166
:1030C000290D311D97FC3A950619110967FC1395D6
:1030D000BC016F5F7F4F800F911F95CFCF92DF9222
:1030E000EF92FF920F931F93CF93DF93EC018B012D
:1030F0001092E70F7A01D12CC12CF70161917F0169
:10310000E091D10FF091D20F8FEC9FE019958F3F96
:10311000980719F18E3F2FEF920779F39C01A801D0
:10312000BE018FEC9FE00E94A31620913B1021303E
:1031300059F038F0223059F0233061F0C80ED91E12
:10314000DCCFC80FD91FFACF080F191FF7CFC81B44
:10315000D90BF4CF081B190BF1CFC601DF91CF912A
:103160001F910F91FF90EF90DF90CF90089522E68E
:1031700038E03093D20F2093D10F0C946E18AF9299
:10318000BF92CF92DF92EF92FF920F931F93CF9354
:10319000DF9300D01F921F92CDB7DEB78C01DC0108
:1031A000DA96AC90DA97DB96EC90DB97ED91FC9198
:1031B000B188FE2CD12CC12CD801ED91FC91119736
:1031C0008089D8962D913C911C82FD828B83B8E03A
:1031D0008B9FC00111248C9DA0018D9D500D9C9D45
:1031E000500D1124240F351F3A832983D8011496DA
:1031F000ED91FC919E012F5F3F4F41E06FE0C801D0
:103200001995F3948F2D8E198A1528F4BFEFCB1AD8
:10321000DB0AFB1488F20F900F900F900F900F9025
:10322000DF91CF911F910F91FF90EF90DF90CF90A2
:10323000BF90AF900895CF92DF92EF92FF920F93DD
:103240001F93CF93DF936C01EB017B01E40EF51E1E
:1032500010E000E0CE15DF0561F06991D601ED9137
:10326000FC910190F081E02DC6011995080F191FFE
:10327000F1CFC801DF91CF911F910F91FF90EF9097
:10328000DF90CF900895CF92DF92EF92FF920F934D
:103290001F93CF93DF93EC016C0124E0C20ED11C8D
:1032A000FC01E057FF4F0190F081E02DC601199518
:1032B0008E3FEFEF9E07D8F48E010C561F4FF8019A
:1032C000408151817E01F2E9EF0EF11CF70160812E
:1032D00071819C01C6010E94A316C059DF4F28814D
:1032E0002130C1F078F02230B9F02330E9F081E0EC
:1032F00090E0DF91CF911F910F91FF90EF90DF90C1
:10330000CF900895F70120813181820F931F91831F
:103310008083EDCFF801F7CFF70120813181281BA1
:10332000390B31832083E3CFF801F7CF089590E084
:1033300080E008958F929F92AF92BF92CF92DF92DA
:10334000EF92FF920F931F93CF93DF93D82F8A01B1
:1033500081E08093DF06D093DE061092DD061092A6
:10336000DC068FEB97E00E941D0DC091DC06C13298
:1033700008F037C10E94080C6B017C018091B606F1
:1033800081116CC082E08093B6061092B5068FEF73
:103390008093B4061092B306C093B206ACEBB6E0CD
:1033A000E2E9F6E080E0C813F4C010929106909133
:1033B00091068D2F880F892B80939106809190061E
:1033C000813009F0EAC0109290060E94080C6B014F
:1033D0007C01809191068093BB008091B80690910A
:1033E000B906A091BA06B091BB06892B8A2B8B2B0C
:1033F000A1F00E94080C8090B8069090B906A090A9
:10340000BA06B090BB066C197D098E099F09861615
:103410009706A806B90608F442C08091BC0083FD57
:10342000D8CF85EC8093BC000E94080C6B017C0116
:103430008091B606823009F4B2C08091B406C0E033
:103440008F3F91F18091B406C2E0803269F18091A2
:10345000B406C4E0803341F5C3E026C08091B806CD
:103460009091B906A091BA06B091BB06892B8A2B20
:103470008B2B09F483CF0E94080C8090B8069090A3
:10348000B906A090BA06B090BB066C197D098E09EA
:103490009F0986169706A806B90608F06FCF809197
:1034A000B7060E94A50CC5E01092DD061092DC065E
:1034B0001092DF068FEFC111C6C00E94080C6B018D
:1034C0007C018091B60681118EC081E08093B606A2
:1034D0008093B5069FEF9093B4061092B3061092B6
:1034E000B2068093910680919106DD0FD82BD09380
:1034F000910680919006813009F0B2C0109290063A
:103500000E94080C6B017C01809191068093BB00A6
:103510008091B8069091B906A091BA06B091BB0609
:10352000892B8A2B8B2BA1F00E94080C8090B80667
:103530009090B906A090BA06B090BB066C197D09B0
:103540008E099F0986169706A806B90608F46CC06E
:103550008091BC0083FDD8CF85EC8093BC000E9495
:10356000080C6B017C018091B606813009F47AC0A9
:103570008091B306811198C08091B306A2E9B6E0AC
:10358000E0E7F6E0C81709F453C09D919193CF5F2F
:10359000F9CF9D9191938F5F06CF85EE43CF8091B8
:1035A000B8069091B906A091BA06B091BB06892BD6
:1035B0008A2B8B2B09F43CCF0E94080C8090B80614
:1035C0009090B906A090BA06B090BB066C197D0920
:1035D0008E099F0986169706A806B90608F028CF17
:1035E0005ECFC1E061CF8091B8069091B906A091FD
:1035F000BA06B091BB06892B8A2B8B2B09F461CFBD
:103600000E94080C8090B8069090B906A090BA0667
:10361000B090BB066C197D098E099F098616970626
:10362000A806B90608F04DCF8091B7060E94A50CF8
:1036300010926F06C0936E068FEB97E00E94D60C37
:10364000F801808380E0DF91CF911F910F91FF906F
:10365000EF90DF90CF90BF90AF909F908F900895A4
:1036600085EE7BCF8091B8069091B906A091BA06FD
:10367000B091BB06892B8A2B8B2B09F474CF0E9447
:10368000080C8090B8069090B906A090BA06B09049
:10369000BB066C197D098E099F0986169706A80638
:1036A000B90608F060CFC0CF81E068CFFC01A081EF
:1036B000B18150962C9182AD38E0839FC0011124D6
:1036C000289FA001299F500D112470E060E080AD7B
:1036D00091AD0C94F62585ED8093BC008091B806E1
:1036E0009091B906A091BA06B091BB060796A11DAC
:1036F000B11D23E0B695A795979587952A95D1F7A3
:103700002091BC0024FD03C01092B606089540919C
:10371000B8065091B9066091BA067091BB06452B68
:10372000462B472B69F30097A105B10541F025E32E
:103730002A95F1F700000197A109B109E1CF809125
:10374000B7060C94A50C1F920F920FB60F9211247E
:103750000BB60F922F933F934F935F936F937F938B
:103760008F939F93AF93BF93EF93FF9382E297E082
:103770000E94590AFF91EF91BF91AF919F918F9154
:103780007F916F915F914F913F912F910F900BBE61
:103790000F900FBE0F901F9018951F920F920FB6AB
:1037A0000F9211240BB60F922F938F939F93EF9349
:1037B000FF93E0913207F09133078081E091380761
:1037C000F091390782FD1DC0908180913B078F5F8A
:1037D0008F7320913C07821741F0E0913B07F0E0A6
:1037E000EE5DF84F958F80933B07FF91EF919F918E
:1037F0008F912F910F900BBE0F900FBE0F901F90C7
:1038000018958081F2CF1F920F920FB60F9211245C
:103810002F933F938F939F93AF93BF9380915904BE
:1038200090915A04A0915B04B0915C0430915804CB
:1038300023E0230F2D3758F50196A11DB11D2093CC
:1038400058048093590490935A04A0935B04B09356
:103850005C0480915D0490915E04A0915F04B0913E
:1038600060040196A11DB11D80935D0490935E04D8
:10387000A0935F04B0936004BF91AF919F918F912B
:103880003F912F910F900FBE0F901F90189526E833
:10389000230F0296A11DB11DD2CF1F920F920FB61A
:1038A0000F9211240BB60F922F933F934F935F9378
:1038B0006F937F938F939F93AF93BF93EF93FF93F8
:1038C0008091B900887F803609F44DC008F040C06F
:1038D000883209F4A9C028F5803109F49DC0C8F4E4
:1038E000882309F4FBC0883009F496C0FF91EF915A
:1038F000BF91AF919F918F917F916F915F914F9108
:103900003F912F910F900BBE0F900FBE0F901F9005
:103910001895883109F488C0803241F78093B40645
:1039200014C0803409F49DC040F48033B9F3883367
:10393000E9F68093B40685ECB0C0803509F485C003
:10394000883509F496C0883489F60E946B1BCECF67
:10395000883909F48CC038F5883729F050F4883656
:1039600011F0803719F683E08093B6061092570461
:1039700057C0883809F47BC0803919F0803809F0C5
:10398000B5CF80915704803208F071C0E0915704A0
:1039900081E08E0F809357048091BB00F0E0E95CDA
:1039A000FB4F80833DC0803B39F0E0F4803A09F45E
:1039B00079C0883A09F09ACF84E08093B6061092D5
:1039C000360410923504E0916304F0916404199573
:1039D0008091350481110FC081E0809335041092ED
:1039E000150409C0803C09F4A6CF883C09F4A3CF94
:1039F000883B09F07BCFE091360481E08E0F809305
:103A00003604F0E0EB5EFB4F80818093BB00909129
:103A100036048091350429C0809191068093BB00C3
:103A200085EC8093BC0062CF9091B3068091B20682
:103A3000981758F5E091B30681E08E0F8093B30696
:103A4000F0E0EE56F94F8081E9CFE091B30681E0D6
:103A50008E0F8093B3068091BB00F0E0EE56F94FD5
:103A600080839091B3068091B2069817C8F285E8DA
:103A7000D8CFE091B30681E08E0F8093B30680919A
:103A8000BB00F0E0EE56F94F80838091B5068111BE
:103A90005CCF81E08093900684EA8093BC00109212
:103AA000B60624CF85EC8093BC001092B6068091B8
:103AB0005704803230F4E0915704F0E0E95CFB4FAA
:103AC00010826091570470E0E0916104F09162040B
:103AD00087E394E019951092570408CF1092B4062A
:103AE00034CFCF93109225071092240788EE93E0ED
:103AF000A0E0B0E08093260790932707A0932807C3
:103B0000B093290727E133E030932307209322075E
:103B100025EC30E030932F0720932E0724EC30E083
:103B2000309331072093300720EC30E03093330797
:103B30002093320721EC30E030933507209334078F
:103B400022EC30E0309337072093360726EC30E044
:103B5000309339072093380710923B0710923C07A7
:103B600010923D0710923E071092C2071092C107B3
:103B70008093C3079093C407A093C507B093C6076B
:103B800089E293E09093C0078093BF071092CE0F15
:103B90001092CD0F82E698E090935C1080935B10BA
:103BA00010925E1010925D101092601010925F10D3
:103BB0001092E70F8BE393E09093CC0F8093CB0FA1
:103BC0001092D00F1092CF0F1092E40F1092DB0FD3
:103BD0001092DC0F1092DD0F1092DE0F8FEF8093AA
:103BE000E50F8093E90FEDEEFFE083E090E12FEF2A
:103BF00021938E179F07E1F783E39FE09093D40F03
:103C00008093D30F8FE390E19093D60F8093D50FDD
:103C10008EEB9DE09093D80F8093D70F8CE49DE0BE
:103C20009093DA0F8093D90F30E020E040E069E014
:103C30008FEC9FE00E94330F10922A1010922910EF
:103C40008CE698E090930410809303108BEC97E03F
:103C50009093081080930710C8E0C0930910109249
:103C60000A10109238101092581081E08093591069
:103C700080935A1083E493E090930610809305108C
:103C80008FEC9FE00E948810109222101092211059
:103C900010922610109225108FEF9FEF9093241012
:103CA000809323109093281080932710E0910510A3
:103CB000F09106100280F381E02D8FEC9FE01995C2
:103CC0008BED98E090932C1080932B1010923B106A
:103CD0008EE08093ED0F80E18093EE0F89E080937A
:103CE000F60F8AE08093F70FC093F80FCF910895F5
:103CF000CF93DF93CDB7DEB7A8970FB6F894DEBFAA
:103D00000FBECDBF789484B5826084BD84B58160D8
:103D100084BD85B5826085BD85B5816085BD809196
:103D20006E00816080936E0010928100809181000E
:103D30008260809381008091810081608093810006
:103D4000809180008160809380008091B1008460C8
:103D50008093B1008091B00081608093B000809129
:103D600091008260809391008091910081608093A6
:103D70009100809190008160809390008091A100DB
:103D800082608093A1008091A10081608093A10056
:103D90008091A00081608093A000809121018260C9
:103DA0008093210180912101816080932101809184
:103DB000200181608093200180917A00846080934B
:103DC0007A0080917A00826080937A0080917A00F4
:103DD000816080937A0080917A00806880937A0075
:103DE0001092C10062E084E10E94D70B62E085E19D
:103DF0000E94D70BE0913207F091330782E0808375
:103E0000E0912E07F0912F071082E0913007F0919A
:103E1000310780E1808310923A07E0913607F091F4
:103E2000370786E08083E0913407F0913507808181
:103E300080618083E0913407F0913507808188604C
:103E40008083E0913407F09135078081806880831A
:103E5000E0913407F091350780818F7D808365E0A4
:103E600070E080E090E00E942D0C40E051E06FEFA8
:103E70007FEF85E694E00E94F625E091D30FF09164
:103E8000D40F30E020E040E06AE08FEC9FE019952D
:103E900080915A10882321F08FEC9FE00E94561BDE
:103EA00080E00E94DE088FEC9FE00E94BF18109116
:103EB0000A1080910910180FE091CF0FF091D00FE8
:103EC0008189181708F462C28FEC9FE00E94B30E3C
:103ED00080E00E94DE08E091D30FF091D40F30E033
:103EE00020E040E06BE08FEC9FE0199510926F06A8
:103EF00010926E061092DD061092DC060E94870C6E
:103F000083EE99E0909364048093630484EE99E0D7
:103F100090936204809361048EEB8093BA008FECDF
:103F20009FE00E94561B8091291090912A108A5E72
:103F3000924009F035C281E0809354100E949709A5
:103F400081E00E94F5088AED99E090932C1080930F
:103F50002B1010923B1049E453E070E060E08AE0DF
:103F600090E00E94B71846E653E060E170E08AE016
:103F700090E00E94B71842E853E060E270E08AE007
:103F800090E00E94B7188FEC9FE00E94BF188FEC62
:103F90009FE00E94B30E60EA7FE080E090E00E9424
:103FA0002D0CCE0101961C0188EEC82E83E0D82E80
:103FB000E12CF12C84E10E94800B892B09F0FBC1DC
:103FC00095E090936506809165068A3F09F00BC2E3
:103FD000AE014B5E5F4F60E180E10E949A19811152
:103FE000B9C18D89833308F0B5C1880F990B9F93B0
:103FF0008F938BE993E09F938F931F9284E18F932C
:104000003F922F920E940426B10188E792E00E941D
:10401000FD258091780280936402809179028093DB
:1040200065028FEC9FE00E94561B0FB6F894DEBF2E
:104030000FBECDBF8091291090912A108B579840C8
:1040400051F08BE798E090932A10809329100E94FA
:1040500032160E94970981E0809354100E949709BC
:1040600081E00E94F5088AED99E090932C108093EE
:104070002B1010923B1000E410E020E031E050E003
:1040800040E070E060E08FEC9FE00E94091188231F
:1040900059F100E020E031E050E040E070E060E005
:1040A0008FEC9FE00E94F41101E02EE330E041E04C
:1040B00050E070E060E08FEC9FE00E94F4112EE38E
:1040C00030E041E050E06FEF70E08FEC9FE00E9445
:1040D000F41100E020E031E04FE350E070E060E0F8
:1040E0008FEC9FE00E94F4114FE350E060E470E039
:1040F00080E490E00E9404154BE150E070E060E045
:104100008FE790E00E9404154FE350E060E470E018
:104110008FEB90E00E94041520E030E048EC52E480
:1041200060916606709167068091680690916906B5
:104130000E948A234B015C010E9485232B013C01D4
:10414000C501B4010E94652520E030E04CE252E454
:104150000E94F8249B01AC0160E070E084E592E4E9
:104160000E94182320E030E040E85FE30E9418231B
:104170000E94FC23062F10E020E030E04CE252E4E5
:10418000C301B2010E94F8249B01AC0160E070E021
:1041900080E892E40E94182320E030E040E85FE3EA
:1041A0000E9418230E94FC23462F50E0980163E4EC
:1041B00070E08DE390E00E94891380E490E00E941B
:1041C000311320E030E048EC52E460916A067091CF
:1041D0006B0680916C0690916D060E948A234B01BC
:1041E0005C010E9485232B013C01C501B4010E94A2
:1041F000652520E030E04CE252E40E94F8249B0167
:10420000AC0160E070E084E592E40E94182320E0B5
:1042100030E040E85FE30E9418230E94FC23062F51
:1042200010E020E030E04CE252E4C301B2010E9411
:10423000F8249B01AC0160E070E08FE393E40E94FE
:10424000182320E030E040E85FE30E9418230E943A
:10425000FC23462F50E0980162EC70E08CEB90E07C
:104260000E9489138FEB90E00E94311382E00E943C
:10427000F50841EA53E06CE170E088E390E00E94C9
:10428000B71845EA53E061E370E08AE090E00E94ED
:10429000B71848EA53E066E070E08BE390E00E94D4
:1042A000B7184BEA53E061E370E08DE690E00E94BE
:1042B000B71844E152E064E270E088E390E00E94C5
:1042C000B7184EEA53E06CE170E087EB90E00E9493
:1042D000B71842EB53E061E370E08AE890E00E9497
:1042E000B71845EB53E066E070E08AEB90E00E947F
:1042F000B71848EB53E061E370E08AEE90E00E946B
:10430000B7184CE352E064E270E087EB90E00E9463
:10431000B7184BEB53E061E070E088E790E00E9453
:10432000B71848E752E069E070E088E790E00E9443
:10433000B71881E00E94F50868EC70E080E090E03A
:104340000E942D0C8FEC9FE00E94BF188FEC9FE025
:104350000E94B30EAE014B5E5F4F61E08CE40E94A1
:104360009A198823A1F1AE014B5E5F4F69E080E1AD
:104370000E949A19811137C0AE014A5E5F4F6AE010
:1043800080E10E949A19882359F12DC080915A101A
:10439000882321F08FEC9FE00E94561B812F81CD56
:1043A0008AEE92E090932A10809329100E94321690
:1043B0000E949709C0CD85E10E94800B892B09F4EA
:1043C000FFCD80916506815080936506FCCDAE01DE
:1043D0004A5E5F4F60E08CE40E949A198111C3CF5E
:1043E0008D8918161CF00E94E80AE4CD9E891916E2
:1043F000D4F7292F092E000C330B3F939F93282FBE
:10440000082E000C330B3F938F938FEB93E09F9319
:104410008F931F9284E18F933F922F920E940426E4
:10442000B10180E592E00E94FD25809152028093C7
:104430003E028091510280933D02909150029093F0
:104440003C02909328028093290288E292E00E9425
:1044500097229C01990F440B550B2E5131094109AC
:1044600051096FE174EA84E090E00E94B62528E2E9
:1044700030E040E050E00E94BD22CA01B901605F17
:10448000784D8F4F9F4FA70196010E94BD22CA0110
:10449000B9010E942D2460936A0670936B06809385
:1044A0006C0690936D06809156028093160290914F
:1044B00055029093150280915402809314029093B8
:1044C00001028093000280E092E00E9497229C010A
:1044D000990F440B550B24513109410951096FE1E2
:1044E00074EA84E090E00E94B62528E230E040E0E3
:1044F00050E00E94BD22CA01B901605F784D8F4F24
:104500009F4FA70196010E94BD22CA01B9010E94D6
:104510002D246093660670936706809368069093D7
:1045200069060FB6F894DEBF0FBECDBF5CCFFC01AD
:1045300088279927E89421912032E9F3293010F057
:104540002E30C8F32B3241F02D3239F4689404C078
:104550000E94B522820F911D219120532A30C0F371
:104560001EF4909581959F4F08957AE0979F902D26
:10457000879F802D910D11240895052E97FB1EF421
:1045800000940E94D42257FD07D00E94E72207FC26
:1045900003D04EF40C94D42250954095309521953B
:1045A0003F4F4F4F5F4F089590958095709561955F
:1045B0007F4F8F4F9F4F08950E940923A59F900D15
:1045C000B49F900DA49F800D911D11240895A1E228
:1045D0001A2EAA1BBB1BFD010DC0AA1FBB1FEE1F7D
:1045E000FF1FA217B307E407F50720F0A21BB30BC8
:1045F000E40BF50B661F771F881F991F1A9469F744
:1046000060957095809590959B01AC01BD01CF019F
:104610000895A29FB001B39FC001A39F700D811D9B
:104620001124911DB29F700D811D1124911D0895BB
:104630005058BB27AA270E9430230C94AA240E941A
:10464000712438F00E94782420F039F49F3F19F447
:1046500026F40C946E240EF4E095E7FB0C94682489
:10466000E92F0E94CF2458F3BA1762077307840713
:10467000950720F079F4A6F50C94F1240EF4E0955A
:104680000B2EBA2FA02D0B01B90190010C01CA010C
:10469000A0011124FF27591B99F0593F50F4503EB7
:1046A00068F11A16F040A22F232F342F4427585FA9
:1046B000F3CF469537952795A795F0405395C9F7C1
:1046C0007EF41F16BA0B620B730B840BBAF0915079
:1046D000A1F0FF0FBB1F661F771F881FC2F70EC018
:1046E000BA0F621F731F841F48F4879577956795EB
:1046F000B795F7959E3F08F0B0CF9395880F08F0D7
:104700009927EE0F9795879508950E948124E39548
:104710000C94BB240E949E230C94AA240E9478240B
:1047200058F00E94712440F029F45F3F29F00C9466
:10473000682451110C94F2240C946E240E94CF240E
:1047400068F39923B1F3552391F3951B550BBB27C0
:10475000AA2762177307840738F09F5F5F4F220F05
:10476000331F441FAA1FA9F335D00E2E3AF0E0E8FC
:1047700032D091505040E695001CCAF72BD0FE2F46
:1047800029D0660F771F881FBB1F261737074807DA
:10479000AB07B0E809F0BB0B802DBF01FF27935892
:1047A0005F4F3AF09E3F510578F00C9468240C94CA
:1047B000F2245F3FE4F3983ED4F3869577956795AE
:1047C000B795F7959F5FC9F7880F911D96958795C7
:1047D00097F90895E1E0660F771F881FBB1F6217E6
:1047E00073078407BA0720F0621B730B840BBA0BA4
:1047F000EE1F88F7E09508950E94D72488F09F5710
:1048000098F0B92F9927B751B0F0E1F0660F771FF4
:10481000881F991F1AF0BA95C9F714C0B13091F0EA
:104820000E94F124B1E008950C94F124672F782FB1
:104830008827B85F39F0B93FCCF3869577956795AF
:10484000B395D9F73EF490958095709561957F4F1B
:104850008F4F9F4F0895E89409C097FB3EF49095C1
:104860008095709561957F4F8F4F9F4F9923A9F049
:10487000F92F96E9BB279395F695879577956795D8
:10488000B795F111F8CFFAF4BB0F11F460FF1BC01C
:104890006F5F7F4F8F4F9F4F16C0882311F096E9AF
:1048A00011C0772321F09EE8872F762F05C066235D
:1048B00071F096E8862F70E060E02AF09A95660F16
:1048C000771F881FDAF7880F9695879597F90895CF
:1048D00097F99F6780E870E060E008959FEF80ECB3
:1048E000089500240A941616170618060906089556
:1048F00000240A94121613061406050608950C9453
:104900006E240E94D724D8F3E894E0E0BB279F5799
:10491000F0F02AED3FE049EC06C0EE0FBB0F661F3A
:10492000771F881F28F0B23A62077307840728F0C0
:10493000B25A620B730B840BE3959A9572F7803829
:1049400030F49A95BB0F661F771F881FD2F79048E7
:104950000C946F25092E0394000C11F4882352F057
:10496000BB0F40F4BF2B11F460FF04C06F5F7F4F9B
:104970008F4F9F4F0895EF93E0FF07C0A2EA2AED03
:104980003FE049EC5FEB0E9430230E94AA240F9085
:10499000039401FC9058E4EEF0E00C947B2557FD65
:1049A0009058440F551F59F05F3F71F04795880F9D
:1049B00097FB991F61F09F3F79F087950895121634
:1049C00013061406551FF2CF4695F1DF08C01616E0
:1049D00017061806991FF1CF869571056105089491
:1049E0000895E894BB2766277727CB0197F90895A8
:1049F0000E940B250C94AA240E94712438F00E9476
:104A0000782420F0952311F00C9468240C946E24E3
:104A100011240C94F2240E94CF2470F3959FC1F3CB
:104A2000950F50E0551F629FF001729FBB27F00D5C
:104A3000B11D639FAA27F00DB11DAA1F649F6627B1
:104A4000B00DA11D661F829F2227B00DA11D621F00
:104A5000739FB00DA11D621F839FA00D611D221FBA
:104A6000749F3327A00D611D231F849F600D211D9E
:104A7000822F762F6A2F11249F5750409AF0F1F021
:104A800088234AF0EE0FFF1FBB1F661F771F881F8A
:104A900091505040A9F79E3F510580F00C94682436
:104AA0000C94F2245F3FE4F3983ED4F38695779517
:104AB0006795B795F795E7959F5FC1F7FE2B880F30
:104AC000911D9695879597F908959F930E9481244B
:104AD0000F9007FCEE5F0C94BB249F3F31F0915088
:104AE00020F4879577956795B795880F911D9695D2
:104AF000879597F908959F938F937F936F93FF9373
:104B0000EF939B01AC010E94F824EF91FF910E946A
:104B10008F252F913F914F915F910C94F824DF9353
:104B2000CF931F930F93FF92EF92DF927B018C0143
:104B3000689406C0DA2EEF010E940B25FE01E8946E
:104B4000A5912591359145915591A6F3EF010E94CC
:104B50003023FE019701A801DA9469F7DF90EF9006
:104B6000FF900F911F91CF91DF910895DB018F93FB
:104B70009F930E94DC22BF91AF91A29F800D911D57
:104B8000A39F900DB29F900D1124089597FB072EBF
:104B900016F4009407D077FD09D00E94E22507FCA7
:104BA00005D03EF4909581959F4F0895709561953D
:104BB0007F4F0895EE0FFF1F881F8BBF0790F69160
:104BC000E02D1994AA1BBB1B51E107C0AA1FBB1FF4
:104BD000A617B70710F0A61BB70B881F991F5A9589
:104BE000A9F780959095BC01CD010895DC0101C025
:104BF0006D9341505040E0F70895FB01DC010190B6
:104C00000D920020E1F708950F931F93CF93DF9348
:104C1000CDB7DEB72E970FB6F894DEBF0FBECDBF6F
:104C20000E891F89888D998D26E02C831A8309832C
:104C300097FF02C080E090E801979E838D83AE01CC
:104C4000445E5F4F6A8D7B8DCE0101960E944126A6
:104C50004D815E8157FD0AC02F8138854217530769
:104C60000CF49A01020F131FF80110822E960FB652
:104C7000F894DEBF0FBECDBFDF91CF911F910F9192
:104C800008952F923F924F925F926F927F928F92F0
:104C90009F92AF92BF92CF92DF92EF92FF920F93CB
:104CA0001F93CF93DF9300D000D000D01F921F92AC
:104CB000CDB7DEB77C013B018A01FC011782168269
:104CC000838181FFDDC1CE0101965C01F7019381F3
:104CD000F30193FD859193FF81913F01882309F4AE
:104CE00053C1853239F493FD859193FF81913F0142
:104CF000853229F4B70190E00E945928E7CF912C22
:104D0000212C312CFFE1F31538F08B3211F190F4A6
:104D1000803209F1833229F137FC3CC020ED280FA5
:104D20002A3050F536FE20C08AE0989E200D1124CE
:104D3000922E06C08D3291F0803371F7689430F86E
:104D4000F30193FD859193FF81913F018111DACFAA
:104D500021C0689431F8689432F8F2CF689433F83F
:104D6000EFCF689434F8ECCFEAE02E9E200D1124AA
:104D7000222E689435F8E4CF8E3229F436FC04C133
:104D8000689436F8DDCF8C3619F4689437F8D8CFAC
:104D90008836B1F2982F9F7D95549330E0F083369A
:104DA000A1F18337C1F1833509F063C02801F2E036
:104DB0004F0E511CF801C080D180692D70E036FC87
:104DC00002C06FEF7FEFC6010E9443284C01689438
:104DD00037F882010AC00C5F1F4FFFE3F983882474
:104DE0008394912C6501E89437F833FE2DC0522C42
:104DF0008114910471F5552009F468CFB70180E260
:104E000090E00E9459285A94F6CFF8018081898356
:104E10000E5F1F4FE4CF2801F2E04F0E511CF80146
:104E2000C080D180692D70E036FC02C06FEF7FEF4B
:104E3000C6010E944E284C018201D5CFB70180E205
:104E400090E00E9459282A942814190409F0B0F718
:104E5000CECFF60137FC859137FE81916F01B70106
:104E600090E00E94592851105A94F1E08F1A91084D
:104E7000BFCF843619F0893609F077C0F80137FEC4
:104E80006BC060817181828193810C5F1F4FF32D14
:104E9000FF763F2E97FF09C090958095709561959C
:104EA0007F4F8F4F9F4F689437F82AE030E0A5017D
:104EB0000E948928C82ECA188C2C432C36FE0CC0A0
:104EC000E89440F8C91440F434FE05C032FC03C035
:104ED000F32DFE7E4F2E892C44FEAAC0FE01EC0D60
:104EE000F11D8081803309F09CC0242D297E422E43
:104EF000842D8870582E43FCAAC040FEA4C09C2C70
:104F0000821418F42C0C922C981844FEA6C0B701F9
:104F100080E390E00E94592842FE09C088E790E0B3
:104F200041FE02C088E590E0B7010E945928C914EB
:104F300008F49FC0CA94D12C9FEFC91AD90ACA0C91
:104F4000DB1CF60182916F01B70190E00E945928A5
:104F5000AC14BD04B1F74FCF60817181072E000CF6
:104F6000880B990B0E5F1F4F92CFD32CE894D4F887
:104F70002AE030E08537E1F1232D297FD22E8F36CC
:104F8000A9F1F0F4883551F1F701868197812B96CC
:104F90000FB6F894DEBF0FBECDBFDF91CF911F914A
:104FA0000F91FF90EF90DF90CF90BF90AF909F90C8
:104FB0008F907F906F905F904F903F902F900895CB
:104FC000803749F0883701F7D4FE02C06894D2F8E0
:104FD00020E130E00DC06894D4F8F6CF34FE03C071
:104FE000822F8660D82E20E132E002C028E030E037
:104FF000F801D7FE0FC060817181828193810C5FBF
:105000001F4FA5010E948928C82ECA183D2CE8947C
:1050100037F852CF6081718190E080E00E5F1F4FC2
:10502000F0CF42FC02C0839463CF8394839460CF1B
:10503000842D867809F45CCFF6CFB70180E290E04A
:105040000E94592883948214C0F3512C5ECF522CB5
:105050005818821408F459CFF8CF842D867809F4B3
:1050600066CF8BE241FE80E247FC8DE2B70190E023
:105070005CCFB70180E390E00E9459289A9457CF03
:105080008FEF9FEF84CFFC010590615070400110BD
:10509000D8F7809590958E0F9F1F0895FC01615061
:1050A000704001900110D8F7809590958E0F9F1F4A
:1050B00008950F931F93CF93DF93182F092FEB01C0
:1050C0008B8181FD09C01FEF0FEF812F902FDF91A2
:1050D000CF911F910F91089582FF14C02E813F81BF
:1050E0008C819D81281739073CF4E881F981CF0133
:1050F00001969983888310838E819F8101969F8377
:105100008E83E3CFE885F985812F1995892BA1F34B
:10511000DACFFA01AA27283051F1203181F1E89441
:105120006F936E7F6E5F7F4F8F4F9F4FAF4FB1E09A
:105130003ED0B4E03CD0670F781F891F9A1FA11D95
:10514000680F791F8A1F911DA11D6A0F711D811D96
:10515000911DA11D20D009F468943F912AE0269F5B
:1051600011243019305D3193DEF6CF010895462FBA
:105170004770405D4193B3E00FD0C9F7F6CF462F9B
:105180004F70405D4A3318F0495D31FD4052419304
:1051900002D0A9F7EACFB4E0A695979587957795C1
:1051A0006795BA95C9F700976105710508959B0148
:1051B000AC010A2E06945795479537952795BA95D1
:1051C000C9F7620F731F841F951FA01D0895F894DF
:0251D000FFCF0F
:1051D200393800000000000000000000000000005C
:1051E200000000004E4F21000000000000000000FF
:1051F200000000000000000038390000000000003C
:1052020000000000000000000000000049324300DE
:10521200000000000000000000000000000000008C
:105222003838632F393963000000000000000000A5
:105232000000000044415400000000000000000093
:105242000000000000000000444154000000000083
:105252000000000000000000000000001815A01669
:1052620006161119FF1815AE19FF1815AF19FF18F8
:1052720015A01614161119FFFE0118FE0115FD16D0
:105282001215AE15B3169115CA163F15A2160015C2
:10529200A1160015A01606161115AB160115B416A7
:1052A200A016FD15C1169F15C7160F15B915B11613
:1052B200E215D116A2162015BB161F15B616081533
:1052C200BE160715A615A9FE0119FF0001140A64EE
:1052D2006432328096980000040A9620081C1C0052
:1052E200014000000000007B0AE509120AC80A43D7
:1052F2000A210A350A000000001D0DF00C9719C69C
:105302000CE90CD60CC70C0000000043191B1997BE
:1053120019961988104211781020202020204F70F1
:10532200656E58656E69756D204F4C454420456425
:105332006974696F6E002020202020204932432D9D
:10534200322D477261706820323032322042455429
:10535200410020202020202020204279204C75630B
:10536200204672616E636F65757200257525252072
:105372000047505500323000343000363000435080
:10538200550033300035300037300046414E00259D
:0853920075432F25754300004F
:00000001FF
